:020000040800F2
:10000000380800209D01000835410008B13C000877
:1000100031410008DD020008694A000800000000C4
:10002000000000000000000000000000A9410008DE
:10003000E904000800000000A5410008AD410008E7
:10004000B7010008B7010008B7010008B7010008B0
:10005000B7010008B7010008B7010008B7010008A0
:10006000B7010008B7010008B7010008B701000890
:1000700041030008B701000851030008B701000858
:100080006103000871030008B701000801030008BC
:10009000E1020008F1020008B7010008B7010008FA
:1000A000B701000885420008B7010008B701000841
:1000B000B7010008B7010008B7010008B701000840
:1000C000B7010008B7010008B7010008B701000830
:1000D000B7010008394A0008494A0008594A00088F
:1000E000B7010008B7010008B7010008B701000810
:1000F00095420008B7010008B7010008B7010008E1
:10010000B7010008B7010008B7010008B7010008EF
:10011000B7010008B7010008B7010008B7010008DF
:10012000B7010008B701000881030008B701000803
:10013000B7010008000000000000000031030008C3
:100140001103000821030008B7010008B7010008E7
:10015000B7010008B701000891030008B7010008C3
:10016000B7010008B7010008B7010008B70100088F
:10017000B7010008B70100080000000000000000FF
:10018000B7010008B7010008DFF80CD000F07AF8DA
:10019000004800472D4B00083808002006488047DB
:1001A00006480047FEE7FEE7FEE7FEE7FEE7FEE75C
:1001B000FEE7FEE7FEE7FEE771420008890100085E
:1001C0002DE9F05F0546002092469B46884606468C
:1001D000814640241BE0284641464746224600F01F
:1001E00041F853465A46C01A914110D31146184659
:1001F000224600F028F82D1A67EB01084F462246E8
:100200000120002100F01FF817EB00094E41201ECD
:10021000A4F10104DFDC484631462A464346BDE8E6
:10022000F09FD2B201E000F8012B491EFBD27047CB
:100230000022F6E710B513460A4604461946FFF7B2
:10024000F0FF204610BD202A04DB203A00FA02F11C
:10025000002070479140C2F1200320FA03F31943B4
:1002600090407047202A04DB203A21FA02F0002156
:10027000704721FA02F3D040C2F1200291400843B6
:1002800019467047064C074D06E0E06840F0010350
:1002900094E8070098471034AC42F6D3FFF778FF94
:1002A000304E0008504E000880B582B00020C4F2E5
:1002B000020000904FF480710191012201F06AFD6B
:1002C000642001F055FB00980199002201F062FDC5
:1002D0004FF4FA7001F04CFB02B080BDFFE7FEE77F
:1002E00080B540F23C00C2F2000000F0B7FB80BDD8
:1002F00080B540F23C00C2F2000000F0AFFB80BDD0
:1003000080B540F23C00C2F2000000F0A7FB80BDC7
:1003100080B540F26400C2F2000000F09FFB80BD97
:1003200080B540F26400C2F2000000F097FB80BD8F
:1003300080B540F26400C2F2000000F08FFB80BD87
:1003400080B540F20C20C2F2000001F0C9F880BD77
:1003500080B540F26C20C2F2000001F0C1F880BD0F
:1003600080B540F24C10C2F2000001F0B9F880BD37
:1003700080B540F2AC10C2F2000001F0B1F880BDCF
:1003800080B540F28C00C2F2000001F0A9F880BDF7
:1003900080B540F2EC00C2F2000001F0A1F880BD8F
:1003A00082B001900198007810384AF6AB21CAF665
:1003B000AA21A0FB011000090090009944F62660D4
:1003C000C0F60000405C0199C8650098042807D376
:1003D000FFE701990868042262F30900886506E0D6
:1003E0000199086840F2FF3290438865FFE7019861
:1003F000806D02B07047000086B0059000208DF837
:1004000013000598806A03900598806910BBFFE788
:100410000398029003281BD80299DFE801F0020D2F
:100420000218059890F82F00C00720B1FFE70120BF
:100430008DF81300FFE70CE00598C06AB0F1C07FAB
:1004400004D1FFE701208DF81300FFE701E000E091
:10045000FFE745E005988069B0F5005F25D1FFE72B
:100460000398019003281ED80199DFE801F00206E5
:10047000021101208DF8130016E0059890F82F0066
:10048000C00720B1FFE701208DF81300FFE70BE064
:100490000598C06AB0F1C07F04D1FFE701208DF854
:1004A0001300FFE700E0FFE719E00398009003283E
:1004B00004D3FFE70098032804D00EE001208DF854
:1004C00013000BE0059890F82F00C00720B1FFE75C
:1004D00001208DF81300FFE700E0FFE7FFE7FFE7EB
:1004E0009DF8130006B070477047000072B6FFE732
:1004F000FEE7000084B002900191029890F820007D
:100500008DF803009DF80300012805D0FFE79DF852
:10051000030002280AD1FFE7019A0298016848699E
:100520001043486100208DF80F0008E00299486AE6
:1005300040F48020486201208DF80F00FFE79DF80D
:100540000F0004B07047000088B006900591049237
:100550000393069890F820008DF80700069800682D
:10056000806800900598806808B9FFE700E0FFE721
:100570009DF80700012806D0FFE79DF80700022834
:1005800040F08080FFE79DF80300400700280CD46E
:10059000FFE79DF803000007002806D4FFE79DF859
:1005A0000300C006002864D5FFE70098C0F301608F
:1005B000029002990120884003990860059880689C
:1005C00068B9FFE705980168C06840EA415006999C
:1005D0000968029A01EB0211C1F880010EE0059949
:1005E0004A688868C96840EAC200084306990968F1
:1005F000029A01EB0211C1F88001FFE7059800693A
:1006000006990968029A01EB0211C1F88401059864
:10061000007D01280CD1FFE706980068029900EBE5
:100620000111D1F8840140F48070C1F88401FFE722
:100630000498406806990968029A01EB0211C1F812
:100640008C010498006806990968029A01EB02116E
:10065000C1F8880106980068029900EB0111D1F8F1
:10066000800140F00100C1F8800100208DF81F00DA
:1006700011E00699486A40F40010486201208DF8A4
:100680001F0008E00699486A40F480204862012073
:100690008DF81F00FFE79DF81F0008B070470000AD
:1006A00086B004900391049890F820008DF8030020
:1006B0009DF80300012806D0FFE79DF803000228FB
:1006C00040F0B080FFE746F20040C4F20000019025
:1006D0000199D1F8000240F00100C1F8000201992F
:1006E000D1F8000220F47C50C1F800020398426A5D
:1006F0000199D1F8000240EA0220C1F800020398F3
:10070000406900F01F01012088400290029A01997F
:10071000D1F81C029043C1F81C020398C069F0B9DB
:10072000FFE7029A0199D1F80C029043C1F80C023C
:10073000039A9088D168526940EA0140019901EB1F
:10074000C201C1F84002039A10889168526940EAD8
:100750000140019901EBC201C1F84402FFE703988F
:10076000C06901281ED1FFE7029A0199D1F80C0255
:100770001043C1F80C02039A90881168526940EA4C
:100780000140019901EBC201C1F84002039A90892E
:100790009168526940EA0140019901EBC201C1F838
:1007A0004402FFE70398806940B9FFE7029A019984
:1007B000D1F804029043C1F8040207E0029A0199BB
:1007C000D1F804021043C1F80402FFE7039800695E
:1007D00040B9FFE7029A0199D1F814029043C1F899
:1007E000140207E0029A0199D1F814021043C1F8EB
:1007F0001402FFE70398006A012808D1FFE7029A74
:100800000199D1F81C021043C1F81C02FFE70199BD
:10081000D1F8000220F00100C1F8000200208DF89C
:10082000170008E00499486A40F4802048620120DB
:100830008DF81700FFE79DF8170006B0704700001D
:1008400081B0009001B0704786B00490039102928D
:100850000193049890F820008DF803009DF80300A0
:10086000012806D0FFE79DF80300022840F0E88049
:10087000FFE7039880B9FFE704980068C068800725
:1008800048B9FFE70499486A40F400104862012023
:100890008DF81700DDE00FE004980068006980071C
:1008A00048B9FFE70499486A40F400104862012003
:1008B0008DF81700CDE0FFE704980068039900EB7E
:1008C0000110D0F8B00100F004000299886002988D
:1008D000806858B9FFE704980068039900EB01109D
:1008E000D0F8B001400D029908600AE00498006851
:1008F000039900EB0110D0F8B001C00802994860DC
:10090000FFE704980068039900EB0110D0F8B001EC
:1009100000F002000299C86004980068039900EB97
:100920000110D0F8B40100F00F00082804D3FFE74D
:100930000299082008610BE004980068039900EB15
:100940000110D0F8B40100F00F0002990861FFE730
:1009500004980068039900EB0110D0F8B40180B24C
:10096000000A0299886104980068039900EB01105D
:10097000D0F8B401000C029948610498006803990A
:1009800000EB0110D0F8B8010199087004980068D4
:10099000039900EB0110D0F8B801000A01994870E2
:1009A00004980068039900EB0110D0F8B801000C1E
:1009B0000199887004980068039900EB0110D0F841
:1009C000B801000E0199C87004980068039900EB03
:1009D0000110D0F8BC0101990871049800680399CE
:1009E00000EB0110D0F8BC01000A0199487104988D
:1009F0000068039900EB0110D0F8BC01000C0199CC
:100A0000887104980068039900EB0110D0F8BC01CC
:100A1000000E0199C871039838B9FFE7049801687E
:100A2000C86840F02000C86006E0049801680869C2
:100A300040F020000861FFE700208DF8170008E073
:100A40000499486A40F48020486201208DF817001C
:100A5000FFE79DF8170006B07047000080B58AB028
:100A6000099000200890099800684069079009984B
:100A700000684068069009980068806805900998A9
:100A80000068C0680490099800680069039009989C
:100A90000068806902909DF81C00C007002800F0E3
:100AA0009480FFE79DF81400C00758B3FFE709984A
:100AB0000168012088609DF814008007002804D593
:100AC000FFE7099800F05CFC1BE09DF8140040076C
:100AD000002805D5FFE7089840F4006008900FE073
:100AE0009DF814000007002805D5FFE7089840F49A
:100AF0008050089003E0099800F03EFCFFE7FFE714
:100B0000FFE7FFE79DF81500C00760B3FFE709980E
:100B100001684FF4807088609DF8150080070028F8
:100B200004D5FFE7099800F033FC1BE09DF81500A1
:100B30004007002805D5FFE7089840F400500890CA
:100B40000FE09DF815000007002805D5FFE708987D
:100B500040F48040089003E0099800F015FCFFE79E
:100B6000FFE7FFE7FFE79DF81600C00760B3FFE768
:100B7000099801684FF4803088609DF8160080075E
:100B8000002804D5FFE7099800F00AFC1BE09DF857
:100B900016004007002805D5FFE7089840F40040FC
:100BA00008900FE09DF816000007002805D5FFE724
:100BB000089840F48030089003E0099800F0ECFBBE
:100BC000FFE7FFE7FFE7FFE7FFE79DF81C000007EF
:100BD000002810D5FFE79DF81000C006002809D5B1
:100BE000FFE7089840F40070089009980168102009
:100BF000C860FFE7FFE79DF81C00400700280FD5FD
:100C0000FFE79DF810000007002808D5FFE70998C6
:100C100001680820C860099800F0F4FAFFE7FFE7D0
:100C20009DF81C00800700280BD5FFE70998006895
:100C3000C068800720B1FFE7099800F0E7FAFFE7F6
:100C4000FFE79DF81C004006002810D5FFE79DF83F
:100C50000C00C006002809D5FFE7089840F4806022
:100C600008900998016810200861FFE7FFE79DF8E8
:100C70001C00800600280FD5FFE79DF80C00000738
:100C8000002808D5FFE7099801680820086109983D
:100C900000F0F0FAFFE7FFE79DF81C00C00600280F
:100CA0000BD5FFE7099800680069800720B1FFE7CE
:100CB000099800F0E3FAFFE7FFE79DF81E008007C0
:100CC00000280FD5FFE79DF81800C006002808D5BA
:100CD000FFE70998016810204860099800F002FBBE
:100CE000FFE7FFE79DF81E00C00778B1FFE79DF81A
:100CF00018000007002808D5FFE7099801680820B8
:100D00004860099800F050FBFFE7FFE79DF81D00E1
:100D10000006002840F18D80FFE79DF8180040078D
:100D2000002840F18180FFE79DF81D00C00750B109
:100D3000FFE79DF80800C00728B1FFE7089840F0DA
:100D400001000890FFE79DF81D00800700280BD5E3
:100D5000FFE79DF808008007002805D5FFE7089801
:100D600040F002000890FFE79DF81D0040070028B2
:100D70000BD5FFE79DF808004007002805D5FFE7E1
:100D8000089840F004000890FFE79DF81D00000758
:100D9000002848D5FFE79DF8080010F0700F42D0FA
:100DA000FFE7029800F0700001460191102814D06E
:100DB000FFE70198202815D0FFE70198302816D0CA
:100DC000FFE70198402817D0FFE70198502818D076
:100DD000FFE70198602819D01DE0089840F008004E
:100DE000089019E0089840F01000089014E0089866
:100DF00040F0200008900FE0089840F04000089074
:100E00000AE0089840F08000089005E0089840F457
:100E10008070089000E0FFE709980168886920F079
:100E200070008861FFE7FFE70998016804204860C7
:100E3000FFE7089848B1FFE7089A0999486A104304
:100E400048620998FFF7FCFCFFE70AB080BD00008C
:100E500080B584B00290029820B9FFE701208DF898
:100E60000F00E0E0029890F8200020B9FFE7029818
:100E700000F0DEF8FFE702980168086840F0010022
:100E8000086000F09FFF0190FFE70298006840684B
:100E9000C007A8B9FFE700F095FF0199401A0B2899
:100EA0000DD3FFE70299486A40F400304862029986
:100EB000052081F8200001208DF80F00B3E0E4E761
:100EC00002980168086820F00200086000F07AFFCC
:100ED0000190FFE70298006840688007002815D558
:100EE000FFE700F06FFF0199401A0B280DD3FFE7D1
:100EF0000299486A40F4003048620299052081F85E
:100F0000200001208DF80F008DE0E3E70298007EBD
:100F1000012807D1FFE702980168086840F08000C7
:100F2000086006E002980168086820F08000086008
:100F3000FFE70298407E012807D1FFE70298016889
:100F4000086840F04000086006E002980168086800
:100F500020F040000860FFE70298807E012807D15A
:100F6000FFE702980168086840F02000086006E08A
:100F700002980168086820F020000860FFE70298E6
:100F8000C07E012807D1FFE702980168086820F0B9
:100F90001000086006E002980168086840F0100040
:100FA0000860FFE70298007F012807D1FFE7029859
:100FB0000168086840F00800086006E002980168CF
:100FC000086820F008000860FFE70298407F0128C9
:100FD00007D1FFE702980168086840F00400086044
:100FE00006E002980168086820F004000860FFE746
:100FF000029B19685A689868D3F80CC040EA0C0044
:10100000D3F810C040EA0C005B691843013A104362
:10101000C861029900204862029A012182F82010DA
:101020008DF80F00FFE79DF80F0004B080BD0000B1
:1010300080B596B0159000201490139012901190E6
:1010400010901598006846F20041C4F200018842F1
:101050005DD1FFE740F23400C2F2000001680131C7
:1010600001600068012812D1FFE7FFE700200F9020
:1010700043F64000C4F20200016841F000710160D3
:10108000006800F000700F900F98FFE7FFE7FFE7A0
:1010900000200E9043F63000C4F20200016841F0D7
:1010A00001010160006800F001000E900E98FFE75A
:1010B0004FF4C0501090022011900020099012901F
:1010C00003201390092014900020C4F2020010A9FC
:1010D00000F070FC099A132006900521089100F099
:1010E0003FFF069800F032FF0899099A14200790F4
:1010F00000F036FF079800F029FF0899099A15209B
:101100000A9000F02DFF0A9800F020FF77E0159874
:10111000006846F60001C4F2000188426ED1FFE784
:10112000FFE700200D9043F64000C4F20200016882
:1011300041F080610160006800F080600D900D98C2
:10114000FFE740F23400C2F20000016801310160A3
:101150000068012812D1FFE7FFE700200C9043F65A
:101160004000C4F20200016841F0007101600068B3
:1011700000F000700C900C98FFE7FFE7FFE70020FD
:101180000B9043F63000C4F20200016841F0020106
:101190000160006800F002000B900B98FFE76020F0
:1011A00010900220119000200490129003201390C0
:1011B0000920149040F20040C4F2020010A900F08F
:1011C000F9FB049A3F2001900521039100F0C8FE2D
:1011D000019800F0BBFE0399049A4020029000F0B1
:1011E000BFFE029800F0B2FE0399049A41200590D8
:1011F00000F0B6FE059800F0A9FEFFE7FFE716B085
:1012000080BD000081B0009001B0704780B582B011
:101210000190019840F21002C2F2000240F22C0349
:10122000C2F200030021FFF70FFB08BBFFE70198A4
:10123000006846F20041C4F20001884207D1FFE78E
:101240000020C4F20200202100F090FDFFE7019889
:10125000006846F60001C4F20001884207D1FFE7AA
:101260000020C4F20200802100F080FDFFE7FFE7CC
:1012700002B080BD81B0009001B0704780B582B0EF
:101280000190019840F21002C2F2000240F22C03D9
:10129000C2F200030121FFF7D7FA08BBFFE701986C
:1012A000006846F20041C4F20001884207D1FFE71E
:1012B0000020C4F20200402100F058FDFFE7019831
:1012C000006846F60001C4F20001884207D1FFE73A
:1012D0000020C4F20200802100F048FDFFE7FFE794
:1012E00002B080BD81B0009001B0704780B584B07D
:1012F0000290029890F8200001282FD1FFE7029970
:10130000022081F8200002980168086820F001009E
:10131000086000F057FD0190FFE702980068406800
:10132000C007A8B1FFE700F04DFD0199401A0B2856
:101330000DD3FFE70299486A40F4003048620299F1
:10134000052081F8200001208DF80F000FE0E4E770
:101350000299002048628DF80F0008E00299486A5F
:1013600040F40020486201208DF80F00FFE79DF84F
:101370000F0004B080BD000081B0009001B0704744
:1013800081B0009001B0704781B0009001B070470B
:1013900081B0009001B0704781B0009001B07047FB
:1013A00081B0009001B0704781B0009001B07047EB
:1013B00080B584B002900298806D019000F002FD2B
:1013C0000090029890F8350002280DD0FFE70299AE
:1013D00080204865FFE70299002081F83400FFE78C
:1013E00001208DF80F0055E002980168086820F090
:1013F0001600086002980168486920F08000486182
:101400000298006C20B9FFE70298806C38B1FFE7C2
:1014100002980168086820F008000860FFE7029859
:101420000168086820F001000860FFE70298006882
:101430000068C007C8B1FFE700F0C4FC0099401A7B
:10144000062811D3FFE7029920204865029903205E
:1014500081F83500FFE70299002081F83400FFE7AA
:1014600003208DF80F0015E0E0E70298C16D3F20E2
:101470008840019988600299012081F83500FFE7D2
:101480000299002081F83400FFE7FFE700208DF883
:101490000F00FFE79DF80F0004B080BD82B0009000
:1014A000009890F83500022807D0FFE700998020C7
:1014B000486501208DF807000EE00099052081F8AD
:1014C000350000980168086820F001000860FFE717
:1014D00000208DF80700FFE79DF8070002B0704775
:1014E00080B586B005900020039040F20000C2F263
:1014F0000000006848F2B511C1F64E31A0FB0110A2
:10150000800A02900598806D01900198006804900F
:1015100004980599C96DC840000700281AD5FFE74F
:101520000598006800684007002812D5FFE7059875
:101530000168086820F0040008600598C16D082063
:101540008840019988600599486D40F00100486520
:10155000FFE7FFE704980599C96DC840C007A0B12F
:10156000FFE7059800684069000600280CD5FFE7F2
:101570000598C16D01208840019988600599486DE2
:1015800040F002004865FFE7FFE704980599C96D40
:10159000C8404007002814D5FFE705980068006898
:1015A000800700280CD5FFE70598C16D042088400E
:1015B000019988600599486D40F004004865FFE78F
:1015C000FFE704980599C96DC840C006002847D5B3
:1015D000FFE7059800680068000700283FD5FFE78F
:1015E0000598C16D102088400199886005980068B1
:1015F0000068400300281AD5FFE7059800680068D6
:101600000003002809D4FFE70598006C20B1FFE72C
:101610000598016C8847FFE708E00598806C20B1C9
:10162000FFE70598816C8847FFE7FFE716E005981C
:1016300000680068C005002807D4FFE70598016826
:10164000086820F008000860FFE70598006C20B1EA
:10165000FFE70598016C8847FFE7FFE7FFE7FFE733
:1016600004980599C96DC8408006002840F18D8016
:10167000FFE7059800680068C006002840F18480F4
:10168000FFE70598C16D2020884001998860059882
:1016900090F83500052834D1FFE7059801680868FF
:1016A00020F01600086005980168486920F0800065
:1016B00048610598006C20B9FFE70598806C38B147
:1016C000FFE705980168086820F008000860FFE758
:1016D0000598C16D3F2088400199886005990120D7
:1016E00081F83500FFE70599002081F83400FFE715
:1016F0000598006D20B1FFE70598016D8847FFE769
:101700007BE0059800680068400300281AD5FFE7D1
:101710000598006800680003002809D4FFE70598D1
:10172000406C20B1FFE70598416C8847FFE708E06F
:101730000598C06B20B1FFE70598C16B8847FFE7AC
:10174000FFE720E0059800680068C005002811D474
:10175000FFE705980168086820F010000860059907
:10176000012081F83500FFE70599002081F8340059
:10177000FFE7FFE70598C06B20B1FFE70598C16B55
:101780008847FFE7FFE7FFE7FFE70598406DA0B355
:10179000FFE70598406DC00730B3FFE705990520C6
:1017A00081F8350005980168086820F0010008609C
:1017B000FFE70398013003900299884201D9FFE7BF
:1017C00007E0FFE7059800680068C0070028F0D12F
:1017D000FFE70599012081F83500FFE70599002012
:1017E00081F83400FFE7FFE70598C06C20B1FFE700
:1017F0000598C16C8847FFE7FFE706B080BD000091
:1018000080B586B004900020039000F0DBFA0290CF
:10181000049820B9FFE701208DF81700A3E0049891
:10182000406A08B1FFE7FFE70499022081F835001C
:10183000FFE70499002081F83400FFE7049801686D
:10184000086820F001000860FFE70498006800685D
:10185000C00790B1FFE700F0B5FA0299401A0628D8
:101860000AD3FFE70499202048650499032081F8F2
:1018700035008DF8170076E0E7E704980068006807
:101880000390039848F23F01CFF210010840039003
:10189000049900914868D1F808C0CB680A6940EA09
:1018A0000C00184310434A6910438A691043CA69FF
:1018B0001043096A01430398084303900498406A5F
:1018C000042808D1FFE70499C86A096B014303980B
:1018D00008430390FFE70398049909680860049897
:1018E000006840690390039820F007000390049873
:1018F000416A0398084303900498406A04281AD167
:10190000FFE70498816A0398084303900498C06A2B
:1019100080B1FFE70498FEF76FFD50B1FFE704992F
:10192000402048650499012081F835008DF81700A2
:1019300019E0FFE7FFE703980499096848610498F4
:10194000FEF72EFD01900498C16D3F20884001995B
:101950008860049900204865049A012182F83510B6
:101960008DF81700FFE79DF8170006B080BD000056
:1019700080B584B0039000F025FA0290039801909E
:101980000198013048B1FFE740F20400C2F20000C4
:101990000178019808440190FFE7FFE700F012FA90
:1019A0000299401A0199884201D2FFE7F6E704B094
:1019B00080BD00008EB00D900C9100200A9009901F
:1019C00008900B90FFE70B980F2800F2CC81FFE7FF
:1019D0000B99012088400A900C9800680A990840E9
:1019E000099009980A99884240F0B881FFE70C985D
:1019F000406800F00300012807D0FFE70C9840681A
:101A000000F0030002282FD1FFE70D9880680890AE
:101A10000B984100032000FA01F1089888430890D0
:101A20000C98C0680B99490000FA01F10898084326
:101A3000089008980D9988600D98406808900B9957
:101A4000012000FA01F10898884308900C9840683A
:101A5000C0F300100B9900FA01F1089808430890B0
:101A600008980D994860FFE70C98406800F0030063
:101A7000032818D0FFE70D98C06808900B98410024
:101A8000032000FA01F10898884308900C988068B8
:101A90000B99490000FA01F108980843089008984A
:101AA0000D99C860FFE70C98406800F00300022819
:101AB00026D1FFE70D980B996FF0030202EA51015E
:101AC0000844006A08900B9800F0070081000F207E
:101AD00000FA01F10898884308900C9800690B9966
:101AE00001F00701890000FA01F108980843089005
:101AF00008980D990B9B02EA530211440862FFE714
:101B00000D98006808900B984100032000FA01F13D
:101B10000898884308900C98406800F003000B99DF
:101B2000490000FA01F108980843089008980D99B7
:101B300008600C9880798007002800F00E81FFE78C
:101B4000FFE70020079043F64400C4F2020001685A
:101B500041F480410160006800F4804007900798DC
:101B6000FFE70B9820F0030043F60801C4F20101DF
:101B7000405808900B9800F0030081000F2000FAF5
:101B800001F10898884308900D980021C4F20201E1
:101B9000884203D1FFE7002006905EE00D9840F2F6
:101BA0000041C4F20201884203D1FFE70120059001
:101BB00050E00D9840F60001C4F20201884203D1C2
:101BC000FFE70220049042E00D9840F60041C4F285
:101BD0000201884203D1FFE70320039034E00D980F
:101BE00041F20001C4F20201884203D1FFE7042060
:101BF000029026E00D9841F20041C4F202018842B1
:101C000003D1FFE70520019018E00D9841F600018F
:101C1000C4F20201884203D1FFE7062000900AE0E7
:101C20000D9941F60042C4F202020820914208BF19
:101C300007200090FFE700980190FFE701980290CD
:101C4000FFE702980390FFE703980490FFE70498EA
:101C50000590FFE705980690FFE70698C0B20B993C
:101C600001F00301890000FA01F108980843089087
:101C700008980B9921F0030143F60802C4F201020F
:101C8000885043F60840C4F20100006808900999A2
:101C90000898884308900C988079C006002805D5DC
:101CA000FFE70999089808430890FFE7089843F66A
:101CB0000841C4F20101086043F60C40C4F201007F
:101CC0000068089009990898884308900C988079D2
:101CD0008006002805D5FFE7099908980843089071
:101CE000FFE7089843F60C41C4F20101086043F68F
:101CF0000440C4F2010000680890099908988843DC
:101D000008900C9880798007002805D5FFE709998D
:101D1000089808430890FFE7089843F60441C4F286
:101D20000101086043F60040C4F201000068089019
:101D300009990898884308900C988079C00728B1C1
:101D4000FFE70999089808430890FFE7089843F6C9
:101D50000041C4F201010860FFE7FFE7FFE70B98CD
:101D600001300B902FE60EB07047000083B0029058
:101D7000ADF80610029840690090009ABDF8060080
:101D800002EA0001904340EA01400299886103B0F1
:101D90007047000082B00190ADF802108DF801206C
:101DA0009DF8010028B1FFE7BDF8020001998861A4
:101DB00005E0BDF80200000401998861FFE702B068
:101DC0007047000040F23440C2F2000000687047E3
:101DD00040F20400C2F20000027840F23441C2F244
:101DE00000010868104408607047000080B543F6A1
:101DF0000041C4F20201086840F4007008600868FD
:101E000040F480600860086840F480700860032037
:101E100000F0C0F80F2000F005F800F071F8002085
:101E200080BD000080B58CB00B9000200590049020
:101E3000FFE70020019043F64400C4F2020001686D
:101E400041F002010160006800F002000190019879
:101E5000FFE706A803A900F0D7F900F017FA400041
:101E6000059005984DF68361C4F21B31A0FB01017A
:101E70004FF0FF3000EB9140049040F21430C2F27A
:101E8000000040F20041C4F20101016040F2E7317C
:101E9000C16004994160002101618160816100F0AD
:101EA00075FE8DF80B009DF80B0028BBFFE740F294
:101EB0001430C2F2000000F0DFFE8DF80B009DF838
:101EC0000B00C0B9FFE72C2000F040F80B980F285A
:101ED0000CD8FFE70B992C20002200F041F80B985A
:101EE00040F20801C2F20001086003E001208DF811
:101EF0000B00FFE7FFE7FFE79DF80B000CB080BD8C
:101F000082B0FFE70020019043F64400C4F20200D3
:101F1000016841F480410160006800F48040019054
:101F20000198FFE7FFE70020009043F64000C4F26D
:101F30000200016841F080510160006800F08050AB
:101F400000900098FFE702B07047000080B582B0B3
:101F50008DF807009DF9070002F088FD02B080BDF2
:101F600080B586B08DF8170004910392002002908E
:101F700002F094FD02909DF91700019002980499D7
:101F8000039A02F0D9F80146019802F08FFD06B0DD
:101F900080BD000080B582B00190019802F0A8FDDC
:101FA00002B080BD80B584B002900191029820B942
:101FB000FFE701208DF80F0021E1019843F6004171
:101FC000C4F20201096801F00701884212D9FFE753
:101FD000019943F60040C4F202000170006800F06D
:101FE00007000199884204D0FFE701208DF80F0017
:101FF00005E1FFE702980078800700282AD5FFE76F
:10200000029800784007002809D5FFE743F6080149
:10201000C4F20201086840F4E0500860FFE702984B
:1020200000780007002809D5FFE743F60801C4F24D
:102030000201086840F460400860FFE743F60801C9
:10204000C4F20201086820F0F000029A926810437E
:102050000860FFE702980078C00700286ED0FFE70D
:1020600002984068012811D1FFE743F60000C4F24E
:102070000200006800F400310020B0EB514F04D1A1
:10208000FFE701208DF80F00B9E02CE002984068CE
:10209000022805D0FFE702984068032811D1FFE726
:1020A00043F60000C4F20200006800F00071002056
:1020B000B0EB516F04D1FFE701208DF80F009EE0D7
:1020C00010E043F60000C4F20200006800F00201D4
:1020D0000020B0EB510F04D1FFE701208DF80F0075
:1020E0008DE0FFE7FFE743F60801C4F2020108684C
:1020F00020F00300029A526810430860FFF762FE66
:102100000090FFE743F60800C4F20200006800F008
:102110000C0002994968B0EB810F0ED0FFE7FFF782
:1021200051FE0099401A41F28931884204D3FFE7F9
:1021300003208DF80F0062E0E4E7FFE7019843F623
:102140000041C4F20201096801F00701884212D27D
:10215000FFE7019943F60040C4F2020001700068F5
:1021600000F007000199884204D0FFE701208DF8B4
:102170000F0044E0FFE702980078400700280CD5E4
:10218000FFE743F60801C4F20201086820F4E050BA
:10219000029AD26810430860FFE7029800780007AF
:1021A00000280DD5FFE743F60801C4F202010868D4
:1021B00020F46040029A126940EAC2000860FFE71A
:1021C00000F076F843F60801C4F202010968C9B2CA
:1021D0000A0944F60E61C0F60001895CC84040F26D
:1021E0000001C2F20001086040F20800C2F20000E3
:1021F0000068FFF717FE00208DF80F00FFE79DF83D
:102200000F0004B080BD000082B0019000910199E0
:102210000F20086043F60800C4F20200016801F0D4
:102220000301019A5160016801F0F001019A916087
:10223000016801F4E051019AD160006800F4604047
:10224000C0080199086143F60040C4F2020000682A
:1022500000F007000099086002B0704740F20000EB
:10226000C2F200000068704780B5FFF7F7FF43F641
:102270000801C4F202010968C1F3822244F61E611A
:10228000C0F60001895CC84080BD000080B5FFF742
:10229000E5FF43F60801C4F20201096889B24A0B5E
:1022A00044F61E61C0F60001895CC84080BD000094
:1022B00080B586B00020059004900390029043F60C
:1022C0000800C4F20200006800F00C000146019111
:1022D00040B1FFE7019804280AD0FFE701980828D9
:1022E0000CD04FE042F20040C0F2F40002904FE008
:1022F00047F64000C0F27D10029049E043F604002A
:10230000C4F20200016801F03F010591006840023B
:10231000002813D5FFE743F60400C4F2020000686A
:10232000C0F3881047F64001C0F27D11A0FB010107
:10233000059A0023FDF744FF049012E043F60400E1
:10234000C4F202000068C0F3881042F20041C0F2FB
:10235000F401A0FB0101059A0023FDF731FF049071
:10236000FFE743F60400C4F20200006800F44031C5
:10237000022000EBD130039004980399B0FBF1F0F8
:10238000029005E042F20040C0F2F4000290FFE744
:10239000029806B080BD000080B586B00490049815
:1023A00020B9FFE701208DF8170050E3049800786A
:1023B000C007002800F0A580FFE743F60800C4F23C
:1023C0000200006800F00C00042813D0FFE743F679
:1023D0000800C4F20200006800F00C0008281ED1BA
:1023E000FFE743F60400C4F2020000684002002840
:1023F00015D5FFE743F60000C4F20200006800F4C0
:1024000000310020B0EB514F08D0FFE7049840683E
:1024100020B9FFE701208DF8170018E370E0FFE70F
:1024200004984068B0F5803F09D1FFE743F600010A
:10243000C4F20201086840F48030086020E004988B
:102440004068B0F5A02F0DD1FFE743F60001C4F2BC
:102450000201086840F480200860086840F4803079
:1024600008600CE043F60001C4F20201086820F4A1
:1024700080300860086820F480200860FFE7FFE7EC
:10248000FFE704984068E8B1FFE7FFF79BFC039083
:10249000FFE743F60000C4F20200006800F40031D8
:1024A0000020B0EB514F0CD1FFE7FFF78BFC0399F5
:1024B000401A652804D3FFE703208DF81700C6E211
:1024C000E7E71CE0FFF77EFC0390FFE743F6000020
:1024D000C4F20200006800F400310020B0EB514F5C
:1024E0000CD0FFE7FFF76EFC0399401A652804D370
:1024F000FFE703208DF81700A9E2E7E7FFE7FFE712
:10250000FFE7049800788007002840F19680FFE7F5
:1025100043F60800C4F20200006810F00C0F13D05C
:10252000FFE743F60800C4F20200006800F00C0068
:1025300008282CD1FFE743F60400C4F2020000682B
:102540004002002823D4FFE743F60000C4F2020053
:10255000006800F002010020B0EB510F09D0FFE746
:102560000498C068012804D0FFE701208DF8170007
:102570006DE243F60001C4F20201086820F0F800A1
:10258000049A126940EAC2000860FFE754E0049828
:10259000C06870B3FFE70021C4F247210120086042
:1025A000FFF710FC0390FFE743F60000C4F20200BF
:1025B000006800F002010020B0EB510F0CD1FFE7E2
:1025C000FFF700FC0399401A032804D3FFE7032018
:1025D0008DF817003BE2E7E743F60001C4F2020181
:1025E000086820F0F800049A126940EAC200086006
:1025F00021E00021C4F2472100200860FFF7E2FB40
:102600000390FFE743F60000C4F20200006800F008
:1026100002010020B0EB510F0CD0FFE7FFF7D2FB17
:102620000399401A032804D3FFE703208DF817000D
:102630000DE2E7E7FFE7FFE7FFE704980078000710
:1026400000284BD5FFE70498406918B3FFE740F630
:102650008061C4F2472101200860FFF7B3FB0390BB
:10266000FFE743F67400C4F20200006800F00201C4
:102670000020B0EB510F0CD1FFE7FFF7A3FB03994C
:10268000401A032804D3FFE703208DF81700DEE18A
:10269000E7E722E040F68061C4F2472100200860AD
:1026A000FFF790FB0390FFE743F67400C4F20200CB
:1026B000006800F002010020B0EB510F0CD0FFE7E2
:1026C000FFF780FB0399401A032804D3FFE7032098
:1026D0008DF81700BBE1E7E7FFE7FFE70498007814
:1026E0004007002840F1CE80FFE700208DF807006A
:1026F00043F64000C4F202000068C000002815D470
:10270000FFE7FFE70020009043F64000C4F202001C
:10271000016841F080510160006800F08050009035
:102720000098FFE701208DF80700FFE747F200005F
:10273000C4F200000068C005002822D4FFE747F279
:102740000001C4F20001086840F480700860FFF7DF
:1027500039FB0390FFE747F20000C4F20000006875
:10276000C00500280CD4FFE7FFF72CFB0399401AA3
:10277000032804D3FFE703208DF8170067E1EAE799
:10278000FFE7FFE704988068012809D1FFE743F6D7
:102790007001C4F20201086840F0010008601FE007
:1027A0000498806805280DD1FFE743F67001C4F254
:1027B0000201086840F004000860086840F0010069
:1027C00008600CE043F67001C4F20201086820F0D2
:1027D00001000860086820F004000860FFE7FFE7D8
:1027E000FFE704988068F8B1FFE7FFF7EBFA039082
:1027F000FFE743F67000C4F20200006800F0020137
:102800000020B0EB510F0ED1FFE7FFF7DBFA039981
:10281000401A41F28931884204D3FFE703208DF842
:10282000170014E1E5E71EE0FFF7CCFA0390FFE79D
:1028300043F67000C4F20200006800F002010020BC
:10284000B0EB510F0ED0FFE7FFF7BCFA0399401A27
:1028500041F28931884204D3FFE703208DF8170045
:10286000F5E0E5E7FFE79DF80700012809D1FFE75C
:1028700043F64001C4F20201086820F0805008606D
:10288000FFE7FFE704988069002800F0DC80FFE79D
:1028900043F60800C4F20200006800F00C000828AB
:1028A00000F08580FFE70498806902285CD1FFE78B
:1028B0006021C4F2472100200860FFF783FA0390EB
:1028C000FFE743F60000C4F20200006800F0007168
:1028D0000020B0EB516F0CD0FFE7FFF773FA0399BC
:1028E000401A032804D3FFE703208DF81700AEE059
:1028F000E7E70499C869D1F820C04B6A8A6A40EAC0
:102900000C0040EA8310D2034FF6FF739A43A2F5FE
:1029100080321043C96A40EA016043F60401C4F200
:10292000020108606021C4F2472101200860FFF71E
:1029300049FA0390FFE743F60000C4F20200006882
:1029400000F000710020B0EB516F0CD1FFE7FFF7F2
:1029500039FA0399401A032804D3FFE703208DF8BE
:10296000170074E0E7E721E06021C4F2472100206E
:102970000860FFF727FA0390FFE743F60000C4F270
:102980000200006800F000710020B0EB516F0CD025
:10299000FFE7FFF717FA0399401A032804D3FFE76C
:1029A00003208DF8170052E0E7E7FFE74AE00498BC
:1029B0008069012804D1FFE701208DF8170046E067
:1029C00043F60400C4F20200006802900498806993
:1029D000012831D0FFE7029800F480000499C9690A
:1029E000884229D1FFE7029800F03F000499096A64
:1029F000884221D1FFE7029847F6C0710840049948
:102A0000496AB0EB811F17D1FFE7029800F440300C
:102A10000499896AC9034FF6FF729143A1F5803189
:102A2000884209D1FFE7029800F070600499C96AF2
:102A3000B0EB016F04D0FFE701208DF8170006E02E
:102A4000FFE7FFE7FFE700208DF81700FFE79DF89D
:102A5000170006B080BD000081B0009001B0704743
:102A600081B0009001B0704785B003900291FFE7FC
:102A7000039890F83C00012804D1FFE702208DF86C
:102A800013007EE00399012081F83C00FFE7FFE797
:102A90000399022081F83D00039800684068019086
:102AA0000398006880680090019820F07000019001
:102AB00002980168019808430190019803990968F8
:102AC0004860039800680021C4F2010188423CD0AC
:102AD000FFE703980068B0F1804F36D0FFE7039816
:102AE000006840F20041C4F2000188422DD0FFE7A7
:102AF0000398006840F60001C4F20001884224D027
:102B0000FFE70398006840F60041C4F200018842E4
:102B10001BD0FFE70398006840F20041C4F20101B6
:102B2000884212D0FFE70398006844F20001C4F223
:102B30000101884209D0FFE70398006841F60001CF
:102B4000C4F2000188420ED1FFE7009820F0800017
:102B500000900298416800980843009000980399FB
:102B600009688860FFE70399012081F83D00FFE7CD
:102B70000399002081F83C00FFE700208DF8130046
:102B8000FFE79DF8130005B07047000080B582B0E4
:102B90000090009820B9FFE701208DF807003FE082
:102BA000009890F83D0040B9FFE70099002081F8B7
:102BB0003C00009800F038F8FFE70099022081F807
:102BC0003D00009951F8040B01F06CFB00990120C5
:102BD00081F84600FFE70099012081F83E00009946
:102BE00081F83F00009981F84000009981F8410088
:102BF000FFE7FFE70099012081F84200009981F882
:102C00004300009981F84400009981F84500FFE7EE
:102C10000099012081F83D0000208DF80700FFE7B2
:102C20009DF8070002B080BD80B584B00390039882
:102C300000680021C4F2010188421BD1FFE7FFE7D1
:102C40000020029043F64400C4F20200016841F003
:102C500001010160006800F0010002900298FFE7A6
:102C60001920019000221146FFF77AF90198FFF729
:102C70006DF9FFE704B080BD83B00190019890F832
:102C80003D00012804D0FFE701208DF80B006AE029
:102C90000199022081F83D0001980168C86840F060
:102CA0000100C860019800680021C4F20101884257
:102CB0003CD0FFE701980068B0F1804F36D0FFE7C5
:102CC0000198006840F20041C4F2000188422DD012
:102CD000FFE70198006840F60001C4F20001884255
:102CE00024D0FFE70198006840F60041C4F20001DB
:102CF00088421BD0FFE70198006840F20041C4F20F
:102D00000101884212D0FFE70198006844F20001F7
:102D1000C4F20101884209D0FFE70198006841F63A
:102D20000001C4F20001884212D1FFE70198006857
:102D3000806800F0070000900098062807D0FFE7A1
:102D400001980168086840F001000860FFE706E0AC
:102D500001980168086840F001000860FFE7002062
:102D60008DF80B00FFE79DF80B0003B070470000E3
:102D700080B586B00490039100208DF80B00FFE72A
:102D8000049890F83C00012804D1FFE702208DF858
:102D90001700ABE00499012081F83C00FFE7FFE752
:102DA0000499022081F83D00049800688068019031
:102DB000019820F077000190019820F47F40019065
:102DC00001980499096888600398006800900028B9
:102DD00072D0FFE7009810286ED0FFE700982028F7
:102DE0006AD0FFE70098302866D0FFE700984028B7
:102DF00055D0FFE70098502837D0FFE700986028AB
:102E000040D0FFE7009870280BD0FFE70098B0F59E
:102E1000805F05D0FFE70098B0F5005F16D052E064
:102E200055E004980068039B5A689968DB6801F0D4
:102E30000BFB0498006880680190019840F07700CF
:102E40000190019804990968886040E0049800683E
:102E5000039B5A689968DB6801F0F6FA04980168E8
:102E6000886840F48040886031E004980068039AE4
:102E70005168D26801F018FB04980068502101F0F5
:102E8000FDFA24E004980068039A5168D26801F0C2
:102E900033FB04980068602101F0F0FA17E0049811
:102EA0000068039A5168D26801F0FEFA049800683D
:102EB000402101F0E3FA0AE00498006803990968E8
:102EC00001F0DCFA03E001208DF80B00FFE7049924
:102ED000012081F83D00FFE70499002081F83C00C3
:102EE000FFE79DF80B008DF81700FFE79DF817002E
:102EF00006B080BD81B0009001B0704780B584B04D
:102F0000039003980068C068029003980068006905
:102F100001909DF804008007002824D5FFE79DF864
:102F20000800800700281DD5FFE7039801686FF0AF
:102F300002000861039901200877039800688069FE
:102F4000800720B1FFE70398FFF7D4FF06E003985E
:102F500000F0E2F8039800F0E3F8FFE7039900209F
:102F60000877FFE7FFE79DF804004007002825D514
:102F7000FFE79DF80800400700281ED5FFE70398EB
:102F800001686FF004000861039902200877039834
:102F90000068806910F4407F04D0FFE70398FFF7D2
:102FA000A9FF06E0039800F0B7F8039800F0B8F81E
:102FB000FFE7039900200877FFE7FFE79DF804008B
:102FC0000007002824D5FFE79DF808000007002827
:102FD0001DD5FFE7039801686FF0080008610399A9
:102FE0000420087703980068C069800720B1FFE7D4
:102FF0000398FFF77FFF06E0039800F08DF8039831
:1030000000F08EF8FFE7039900200877FFE7FFE75D
:103010009DF80400C006002825D5FFE79DF80800AC
:10302000C00600281ED5FFE7039801686FF0100066
:10303000086103990820087703980068C06910F4B4
:10304000407F04D0FFE70398FFF754FF06E00398A2
:1030500000F062F8039800F063F8FFE7039900209E
:103060000877FFE7FFE79DF80400C00778B1FFE7A6
:103070009DF80800C00748B1FFE7039801686FF0AA
:1030800001000861039800F04FF8FFE7FFE79DF8A3
:1030900004000006002810D5FFE79DF80800000690
:1030A000002809D5FFE7039801686FF080000861E8
:1030B0000398FFF7D1FCFFE7FFE79DF80400400607
:1030C000002810D5FFE79DF808004006002809D524
:1030D000FFE7039801686FF040000861039800F073
:1030E0003DF8FFE7FFE79DF804008006002810D5B3
:1030F000FFE79DF808008006002809D5FFE7039840
:1031000001686FF0200008610398FFF7A9FCFFE752
:10311000FFE704B080BD000081B0009001B07047AF
:1031200081B0009001B0704780B582B001900198E5
:10313000006840F20041C4F20101884203D1FFE778
:10314000FEF746FEFFE7019800680021C4F2010186
:10315000884201D1FFE7FFE702B080BD81B0009057
:1031600001B0704782B00190ADF8021002B0704714
:1031700081B0009001B0704780B592B01190119865
:1031800000680068109011980068C0680F9011984E
:10319000006840690E9000200D900C90109800F08F
:1031A0000F000D900D9888B9FFE79DF8400080064C
:1031B00000280AD5FFE79DF83C008006002804D5CA
:1031C000FFE7119801F02EFA02E2FFE70D980028C0
:1031D00000F0C280FFE79DF83800C00738B9FFE76C
:1031E000BDF83C0010F4907F00F0B680FFE79DF83A
:1031F0004000C00758B1FFE79DF83D00C00730B15F
:10320000FFE71199486C40F001004864FFE79DF822
:103210004000400700280BD5FFE79DF83800C007A5
:1032200030B1FFE71199486C40F002004864FFE7B5
:103230009DF84000800700280BD5FFE79DF8380077
:10324000C00730B1FFE71199486C40F004004864B2
:10325000FFE79DF840000007002811D5FFE79DF823
:103260003C008006002805D4FFE79DF83800C00721
:1032700030B1FFE71199486C40F008004864FFE75F
:103280001198406C002866D0FFE79DF8400080064A
:1032900000280AD5FFE79DF83C008006002804D5E9
:1032A000FFE7119801F0BEF9FFE711980068406947
:1032B000C0F380100C901198406C0007002804D4D3
:1032C000FFE70C9800283ED0FFE7119801F04CF979
:1032D000119800684069400600282FD5FFE7FFE7F6
:1032E000FFE71198006850E8050F20F040000B90B0
:1032F000FFE70B991198026842E805100028F0D109
:10330000FFE7FFE71198C06B98B1FFE71198C16B19
:1033100044F24D50C0F6000008651198C06BFEF7EE
:10332000BDF828B1FFE71198C06B016D8847FFE732
:1033300003E01198FFF71CFFFFE703E01198FFF788
:1033400017FFFFE706E01198FFF712FF1199002021
:103350004864FFE7FFE73BE11198006B012840F06C
:103360001781FFE79DF84000C006002840F110815A
:10337000FFE79DF83C00C006002840F10981FFE707
:10338000FFE700200A901198006800680A901198E1
:10339000006840680A900A98FFE711980068406941
:1033A0004006002840F19A80FFE71198C06B006842
:1033B0004068ADF82600BDF82600002875D0FFE76C
:1033C000BDF826001199898D88426EDAFFE7BDF8B5
:1033D00026001199C8851198C06BC069B0F5807F2F
:1033E00058D0FFE7FFE7FFE71198006850E8030FA8
:1033F00020F480700890FFE708991198026842E86D
:1034000003100028F0D1FFE7FFE7FFE7FFE711987F
:10341000006850E8050F20F001000790FFE70799CA
:103420001198026842E805100028F0D1FFE7FFE795
:10343000FFE7FFE71198006850E8050F20F0400013
:103440000690FFE706991198026842E805100028E7
:10345000F0D1FFE7FFE71199202081F84200119990
:1034600000200863FFE7FFE71198006850E8030FAA
:1034700020F010000590FFE705991198026842E8D6
:1034800003100028F0D1FFE7FFE71198C06BFDF7AC
:103490008FFFFFE71199022048631198818DC28D3B
:1034A000891A89B2FFF75EFE17E0BDF82600119970
:1034B000898D884210D1FFE71198C06BC069B0F5C3
:1034C000807F08D1FFE71199022048631198818D10
:1034D000FFF748FEFFE7FFE7FFE779E01199888DE6
:1034E000C98D401AADF812001198C08D00284ED039
:1034F000FFE7BDF81200002849D0FFE7FFE7FFE72C
:103500001198006850E8030F20F490700390FFE7D3
:1035100003991198026842E803100028F0D1FFE7F0
:10352000FFE7FFE7FFE71198006850E8050F20F07C
:1035300001000290FFE702991198026842E8051025
:103540000028F0D1FFE7FFE71199202081F8420021
:10355000119900200863FFE7FFE71198006850E821
:10356000030F20F010000190FFE701991198026805
:1035700042E803100028F0D1FFE7FFE7119902208D
:1035800048631198BDF81210FFF7ECFDFFE71FE04C
:103590009DF84000000600280AD5FFE79DF83C0092
:1035A0000006002804D5FFE7119801F08DF90FE01F
:1035B0009DF84000400600280AD5FFE79DF83C0032
:1035C0004006002804D5FFE7119801F017F8FFE73F
:1035D00012B080BD80B582B00090009820B9FFE79E
:1035E00001208DF8070040E00098806908B1FFE7EE
:1035F00000E0FFE7009890F8410040B9FFE700992C
:10360000002081F84000009800F034F8FFE70099AE
:10361000242081F8410000980168C86820F4005017
:10362000C860009801F0B2F800980168086920F4B9
:103630009040086100980168486920F02A004861BC
:1036400000980168C86840F40050C86000990020E4
:103650004864009A202182F84110009A82F84210B2
:10366000009948638DF80700FFE79DF8070002B056
:1036700080BD000080B598B017900020169015907E
:103680001490139012901798006841F20001C4F250
:103690000101884240F09280FFE7FFE7002011908F
:1036A00043F64400C4F20200016841F010010160D9
:1036B000006800F0100011901198FFE7FFE700206C
:1036C000109043F63000C4F20200016841F001019D
:1036D0000160006800F0010010901098FFE74FF4BF
:1036E000C06012900220139000200A9014900320D2
:1036F0001590072016900020C4F2020012A9FEF7D0
:1037000059F90A9940F28C00C2F200000B9046F27F
:103710004042C4F2020202604FF0006242608160E7
:10372000C1604FF48062026141618161C1610162E7
:103730004162FEF765F818B1FFE7FCF7D7FEFFE737
:10374000FFE7179840F28C01C2F20001C16317989D
:103750008863FFE740F2EC00C2F20000099046F2F5
:10376000B841C4F2020101604FF0006141604021A4
:1037700081600021C1604FF480620261416181611A
:10378000C16101624162FEF73BF818B1FFE7FCF747
:10379000ADFEFFE7FFE7179840F2EC01C2F200012F
:1037A000816317988863FFE7252008900521002290
:1037B000FEF7D6FB0898FEF7C9FB37E117980068BB
:1037C00044F20041C4F20001884240F09180FFE7DA
:1037D000FFE700200F9043F64000C4F202000168AA
:1037E00041F400310160006800F400300F900F9840
:1037F000FFE7FFE700200E9043F63000C4F202001E
:10380000016841F001010160006800F001000E90C4
:103810000E98FFE70C2012900220139000200690D3
:10382000149003201590072016900020C4F2020087
:1038300012A9FEF7BFF8069940F24C10C2F2000040
:10384000079046F28802C4F2020202604FF0006262
:1038500042608160C1604FF48062026141618161B8
:10386000C16101624162FDF7CBFF18B1FFE7FCF7D0
:103870003DFEFFE7FFE7179840F24C11C2F200014E
:10388000C16317988863FFE740F2AC10C2F20000F2
:10389000059046F2A001C4F2020101604FF0006100
:1038A0004160402181600021C1604FF4806202616B
:1038B00041618161C16101624162FDF7A1FF18B1FF
:1038C000FFE7FCF713FEFFE7FFE7179840F2AC11A4
:1038D000C2F20001816317988863FFE726200490F5
:1038E00005210022FEF73CFB0498FEF72FFB9CE02D
:1038F0001798006844F60001C4F20001884240F0C5
:103900009380FFE7FFE700200D9043F64000C4F2EC
:103910000200016841F480210160006800F4802009
:103920000D900D98FFE7FFE700200C9043F6300064
:10393000C4F20200016841F004010160006800F077
:1039400004000C900C98FFE74FF4406012900220A6
:1039500013900020029014900320159007201690D9
:1039600040F60000C4F2020012A9FEF723F8029903
:1039700040F20C20C2F20000039046F22802C4F28A
:10398000020202604FF0006242608160C1604FF449
:103990008062026141618161C16101624162FDF742
:1039A0002FFF18B1FFE7FCF7A1FDFFE7FFE717982E
:1039B00040F20C21C2F20001C16317988863FFE74F
:1039C00040F26C20C2F20000019046F25801C4F2AD
:1039D000020101604FF000614160402181600021DF
:1039E000C1604FF48062026141618161C161016225
:1039F0004162FDF705FF18B1FFE7FCF777FDFFE730
:103A0000FFE7179840F26C21C2F20001816317981A
:103A10008863FFE72720009000221146FEF7A0FAF6
:103A20000098FEF793FAFFE7FFE7FFE718B080BDC5
:103A300080B58AB008900791ADF81A200593002050
:103A40000290089890F84200202840F08880FFE714
:103A5000079820B1FFE7BDF81A0020B9FFE7012061
:103A60008DF827007FE0089900204864089A2221F9
:103A700082F8421008990863FEF7A4F90290BDF895
:103A80001A0008998885BDF81A000899C885089811
:103A90008068B0F5805F09D1FFE70898006928B910
:103AA000FFE7002004900798039004E00798049033
:103AB00000200390FFE7FFE70898C08D002846D05C
:103AC000FFE70898029B05996A46116020210022B1
:103AD00000F044FF40B1FFE70899202081F8420040
:103AE00003208DF827003EE0049858B9FFE70898B6
:103AF000006840686FF35F200399088003980230E4
:103B000003901FE008988068B0F5805F08D0FFE759
:103B10000898806850B9FFE70898006930B9FFE756
:103B20000898006840680499087007E008980068E1
:103B3000406800F07F0004990870FFE704980130A6
:103B40000490FFE70899C88D0138C885B4E7089943
:103B5000202081F8420000208DF8270003E0022099
:103B60008DF82700FFE79DF827000AB080BD000010
:103B700081B0009001B0704780B58AB0089007917D
:103B8000ADF81A20059300200290089890F84100A3
:103B9000202840F08180FFE7079820B1FFE7BDF8BB
:103BA0001A0020B9FFE701208DF8270078E0089976
:103BB000002048640899212081F84100FEF702F9AD
:103BC0000290BDF81A0008998884BDF81A00089977
:103BD000C88408988068B0F5805F09D1FFE708982D
:103BE000006928B9FFE7002004900798039004E0DB
:103BF0000798049000200390FFE7FFE70898C08C27
:103C000078B3FFE70898029B05996A461160802106
:103C1000002200F0A3FE40B1FFE70899202081F8C0
:103C2000410003208DF827003AE0049858B9FFE7D7
:103C3000039800886FF35F2008990968486003982B
:103C40000230039008E004980078089909684860F9
:103C5000049801300490FFE70899C88C0138C884A3
:103C6000CCE70898029B05996A4611604021002222
:103C700000F074FE40B1FFE70899202081F8410070
:103C800003208DF827000BE00899202081F84100DF
:103C900000208DF8270003E002208DF82700FFE7C1
:103CA0009DF827000AB080BD81B0009001B0704738
:103CB000FFE7FEE780B58CB040F23C00C2F20000A6
:103CC000019046F20041C4F200010160032141600D
:103CD00000218160C1604FF4002202614FF4401264
:103CE00042610176417601228276C1760177417781
:103CF000FDF7AEF818B1FFE7FCF7F8FBFFE700218E
:103D00000791089101200990029103910491059176
:103D100006910A900E200B9040F23C00C2F2000087
:103D200002A9FCF7BDFC18B1FFE7FCF7DFFBFFE7DA
:103D300040F23C00C2F200000221FCF7DBFB18B1AC
:103D4000FFE7FCF7D3FBFFE740F23C00C2F20000C4
:103D50001021FCF7CFFB18B1FFE7FCF7C7FBFFE72B
:103D600040F23C00C2F20000FDF7C0FA18B1FFE7D4
:103D7000FCF7BCFBFFE70CB080BD000080B58CB049
:103D800040F26400C2F20000019046F60001C4F265
:103D9000000101600321416000218160C1604FF496
:103DA000002202614FF44012426101764176012205
:103DB0008276C17601774177FDF74AF818B1FFE7BF
:103DC000FCF794FBFFE70E20079000210891099172
:103DD0000291049103910591069101210A910B90A2
:103DE00040F26400C2F2000002A9FCF759FC18B1CD
:103DF000FFE7FCF77BFBFFE740F26400C2F2000044
:103E00000221FCF777FB18B1FFE7FCF76FFBFFE738
:103E100040F26400C2F200001021FCF76BFB18B105
:103E2000FFE7FCF763FBFFE740F26400C2F200002B
:103E3000FDF75CFA18B1FFE7FCF758FBFFE70CB0A1
:103E400080BD000080B58AB0FFE70020099043F6EE
:103E50003000C4F20200016841F480010160006892
:103E600000F4800009900998FFE7FFE70020089020
:103E700043F63000C4F20200016841F40011016011
:103E8000006800F4001008900898FFE70C200190EB
:103E9000002206921146FEF763F80198FEF756F8E5
:103EA000069A0E2002901146FEF75AF80298FEF785
:103EB0004DF8069A102003901146FEF751F803982A
:103EC000FEF744F8069A112004901146FEF748F8D0
:103ED0000498FEF73BF8069A3A2005901146FEF743
:103EE0003FF80598FEF732F8069A462007901146EB
:103EF000FEF736F80798FEF729F80AB080BD0000F3
:103F000080B58EB000200D900C900B900A90099017
:103F1000FFE70020089043F63000C4F20200016879
:103F200041F080010160006800F08000089008986E
:103F3000FFE7FFE70020079043F63000C4F20200DD
:103F4000016841F001010160006800F00100079084
:103F50000798FFE7FFE70020069043F63000C4F221
:103F60000200016841F004010160006800F00400F3
:103F700006900698FFE7FFE70020059043F6300023
:103F8000C4F20200016841F002010160006800F023
:103F9000020005900598FFE70020C4F2020003909C
:103FA0004FF4F87100220292FDF7F4FE0299039893
:103FB000F0220992012201920A920B9102210C91A6
:103FC00009A90491FDF7F6FC019B029A0398049954
:103FD0004FF4807CCDF824C00A930B920C92FDF72D
:103FE000E9FC0EB080BD000080B588B000210091D2
:103FF00007910691059104910391029140F2CC2022
:10400000C2F2000001900022C4F201020260A72265
:104010004260816042F20F72C26001614161816160
:10402000FEF7B4FD18B1FFE7FCF760FAFFE74FF4C5
:104030008050049040F2CC20C2F2000004A9FEF7A8
:1040400097FE18B1FFE7FCF751FAFFE70020029056
:10405000039040F2CC20C2F2000002A9FEF704FD5A
:1040600018B1FFE7FCF742FAFFE708B080BD000097
:1040700080B582B040F25C30C2F20000019041F2A3
:104080000001C4F2010101604FF4E13141600021FF
:104090008160C16001610C2242618161C161FFF7F1
:1040A00099FA18B1FFE7FCF721FAFFE702B080BDEB
:1040B00080B582B040F2A430C2F20000019044F218
:1040C0000041C4F2000101604FF4E1314160002180
:1040D0008160C16001610C2242618161C161FFF7B1
:1040E00079FA18B1FFE7FCF701FAFFE702B080BDEB
:1040F00080B582B040F2EC30C2F20000019044F68C
:104100000001C4F2000101604FF4E131416000217F
:104110008160C16001610C2242618161C161FFF770
:1041200059FA18B1FFE7FCF7E1F9FFE702B080BDEB
:10413000FFE7FEE7FFE7FEE788B0079006910592EC
:10414000079800F0070004900498C0F107000528C4
:1041500003D3FFE70420019004E00498C0F10700B6
:104160000190FFE70198039004980430062803D8D3
:10417000FFE70020009003E0049803380090FFE779
:104180000098029006980399012202FA01F1013980
:104190000840029B984005999A40013A1140084313
:1041A00008B070477047000070470000704700007B
:1041B00080B594B008A83021FCF73AF800200790A9
:1041C0000690059004900390FFE70020029043F6CC
:1041D0004000C4F20200016841F0805101600068B3
:1041E00000F0805002900298FFE7FFE70020019066
:1041F00047F20000C4F20000016841F48041016010
:10420000006800F4804001900198FFE701200890C9
:104210004FF48030099002200E904FF480010F91EE
:10422000192110914FF4A87111911290042013904C
:1042300008A8FEF7B1F818B1FFE7FCF757F9FFE758
:104240000F20039002200490002005904FF4A0500E
:1042500006904FF48050079003A80521FDF7A2FEB9
:1042600018B1FFE7FCF742F9FFE714B080BD00008A
:104270004EF68851CEF20001086840F470000860E4
:104280007047000080B540F2CC20C2F20000FEF77B
:1042900035FE80BD80B540F21430C2F20000FEF75A
:1042A0002DFE80BD83B002900191029800680090BD
:1042B00002980021C4F20101884225D0FFE702984C
:1042C000B0F1804F20D0FFE7029840F20041C4F2E5
:1042D0000001884218D0FFE7029840F60001C4F2BE
:1042E0000001884210D0FFE7029840F60041C4F276
:1042F0000001884208D0FFE7029840F20041C4F272
:10430000010188420AD1FFE7009820F07000009078
:1043100001984168009808430090FFE70298002147
:10432000C4F20101884255D0FFE70298B0F1804FF6
:1043300050D0FFE7029840F20041C4F200018842E9
:1043400048D0FFE7029840F60001C4F2000188421D
:1043500040D0FFE7029840F60041C4F200018842D5
:1043600038D0FFE7029840F20041C4F201018842D0
:1043700030D0FFE7029844F20001C4F20101884204
:1043800028D0FFE7029844F20041C4F201018842BC
:1043900020D0FFE7029844F60001C4F201018842F0
:1043A00018D0FFE7029841F60001C4F200018842EC
:1043B00010D0FFE7029841F60041C4F200018842A4
:1043C00008D0FFE7029842F20001C4F200018842DF
:1043D0000AD1FFE7009820F4407000900198C1686E
:1043E000009808430090FFE7009820F080000199B2
:1043F000496908430090019880680299C862019851
:1044000000680299886202980021C4F20101884282
:1044100008D0FFE7029840F20041C4F2010188424F
:1044200005D1FFE70198006902990863FFE7029947
:10443000086840F004000860029901204861009873
:104440000299086003B0704785B00490039102920E
:104450000193049880680090009820F47F400090B9
:1044600003980299019A41EA022101430098084306
:10447000009000980499886005B0704783B002905E
:104480000191029880680090009820F070000090E0
:1044900001980099084340F00700009000980299A5
:1044A000886003B07047000085B0049003910292C9
:1044B0000498006A00900499086A20F001000862DC
:1044C000049880690190019820F0F0000190029911
:1044D000019840EA01100190009820F00A00009035
:1044E0000399009808430090019804998861009806
:1044F0000499086205B0704785B004900391029258
:104500000498006A00900499086A20F0100008627C
:10451000049880690190019820F4704001900299FC
:10452000019840EA01300190009820F0A00000902E
:104530000399009840EA011000900198049988615D
:1045400000980499086205B07047000080B582B0F9
:1045500001900198806B009000990020C885009818
:10456000FEF706FE02B080BD84B00390FFE7FFE7D0
:104570000398006850E8030F20F490700290FFE762
:1045800002990398026842E803100028F0D1FFE77F
:10459000FFE7FFE7FFE70398006850E8050F20F00A
:1045A00001000190FFE701990398026842E80510B5
:1045B0000028F0D1FFE7FFE70398006B012814D132
:1045C000FFE7FFE7FFE70398006850E8030F20F0DC
:1045D00010000090FFE700990398026842E803107A
:1045E0000028F0D1FFE7FFE7FFE70399202081F8DB
:1045F000420003990020086304B0704780B582B080
:10460000019001980168C86820F04000C8600199D5
:10461000202081F841000198FFF746FB002002B0FE
:1046200080BD000080B586B0049000200390029009
:10463000049890F84200222840F0A080FFE70498F8
:104640008068B0F5805F13D1FFE70498006978B9FE
:10465000FFE70498806A02900498006840686FF34E
:104660005F20029908800499886A0230886223E0FA
:104670000498806A039004988068B0F5805F08D041
:10468000FFE70498806850B9FFE70498006930B9E3
:10469000FFE70498006840680399087007E00498F1
:1046A0000068406800F07F0003990870FFE70499F4
:1046B000886A01308862FFE70499C88D0138C8858F
:1046C0000004002856D1FFE704980168C86820F06C
:1046D0002000C86004980168C86820F48070C86031
:1046E00004980168486920F001004861049920207D
:1046F00081F842000499002048630498006B012867
:1047000030D1FFE7049900200863FFE7FFE7049832
:10471000006850E8030F20F010000190FFE70199B6
:104720000498026842E803100028F0D1FFE7FFE791
:10473000049800680068C00600280ED5FFE7FFE770
:1047400000200090049800680068009004980068B9
:10475000406800900098FFE7FFE70498818DFEF71E
:1047600001FD03E00498FFF703FAFFE700208DF84E
:10477000170007E000208DF8170003E002208DF8F5
:104780001700FFE79DF8170006B080BD80B586B022
:10479000059005980068006920F44050059A11685A
:1047A000D26810430861059988680B694A69C9692C
:1047B000184310430843049005980068C06849F204
:1047C0000C6188430499084305990968C8600598F5
:1047D0000068406920F44070059A1168926910439E
:1047E00048610598006841F20001C4F20101884265
:1047F00009D0FFE70598006841F20041C4F20101C9
:10480000884204D1FFE7FDF741FD039003E0FDF787
:104810002BFD0390FFE70598C069B0F5004F29D143
:10482000FFE703981921A0FB0101059A1368029381
:1048300053685A00DB0FFBF7C3FC0299864648F227
:104840001F53C5F2EB13AEFB0320420910014FF0DA
:10485000640C02FB1CEC322202EBCC02A2FB033202
:10486000F82303EA521300EB4300C2F34212104450
:10487000886026E003981921A0FB0101059A1368BE
:10488000019353689A009B0FFBF79AFC01998446A9
:1048900048F21F52C5F2EB12ACFB02304309642010
:1048A00003FB10CC322000EB0C10A0FB0202F02026
:1048B00000EA521000EB0310C2F343121044886068
:1048C000FFE706B080BD000083B00190019890F82A
:1048D000410021283AD1FFE701988068B0F5805F58
:1048E00013D1FFE70198006978B9FFE70198006AE2
:1048F0000090009800886FF35F2001990968486074
:104900000199086A0230086208E0019A106A411CA5
:1049100011620078019909684860FFE70199C88C25
:104920000138C884000468B9FFE701980168C868C5
:1049300020F08000C86001980168C86840F040001D
:10494000C860FFE700208DF80B0003E002208DF81F
:104950000B00FFE79DF80B0003B0704780B586B0F1
:10496000DDF820C0049003918DF80B200193FFE740
:1049700004980068006803990840401AB0FA80F073
:1049800040099DF80B1088424DD1FFE7089801308F
:10499000002847D0FFE7FDF715FA0199401A08995A
:1049A000884203D8FFE7089820B9FFE703208DF875
:1049B00017003CE004980068C0684007002830D524
:1049C000FFE7039880282CD0FFE70398402828D0E1
:1049D000FFE704980068006800F008010120B0EBD0
:1049E000D10F1DD1FFE7FFE7002000900498006879
:1049F0000068009004980068406800900098FFE705
:104A00000498FFF7B1FD049908204864FFE7049972
:104A1000002081F84000FFE701208DF8170006E034
:104A2000FFE7FFE7A4E700208DF81700FFE79DF8F8
:104A3000170006B080BD000080B540F25C30C2F2C5
:104A40000000FEF799FB80BD80B540F2A430C2F2B1
:104A50000000FEF791FB80BD80B540F2EC30C2F261
:104A60000000FEF789FB80BDFFE7FEE781B08DF80F
:104A700003009DF9030000280ED4FFE79DF9031001
:104A800001F01F02012090404A094EF20011CEF2BF
:104A9000000141F82200FFE701B070474EF60C50CC
:104AA000CEF200000068C0F30220704782B08DF89B
:104AB000070000919DF9070000280AD4FFE700983D
:104AC00000019DF907104EF20042CEF20002885418
:104AD0000BE0009800019DF8071001F00F014EF661
:104AE0001452CEF200028854FFE702B07047000073
:104AF00083B00290029800F0070000904EF60C512F
:104B0000CEF200010868019001984FF6FF021040B4
:104B100001900198009A40EA02200022C0F2FA5265
:104B2000104301900198086003B0704780B58CB0C5
:104B3000002001900B90FDF759F9FFF739FBFFF7C3
:104B4000DFF9FFF77FF9FFF7B5F8FFF717F9FFF780
:104B50004BFAFFF78DFAFFF7ABFAFFF7C9FAFBF74D
:104B6000A3FB01980A9009904F218DF824104B2146
:104B70008DF82510089040F22311029103900490C3
:104B8000059008200690FFE700F02CF840F238006E
:104B9000C2F200000068009040B1FFE700980128D1
:104BA00005D0FFE7009802280BD014E014E040F293
:104BB0003C00C2F2000002A909AA08ABFBF7C4FC42
:104BC0000AE040F26400C2F2000002A909AA08ABA0
:104BD000FBF7BAFC00E0FFE74FF4FA70FCF7C8FE01
:104BE000D2E7000080B58AB05A208DF82700002057
:104BF0008DF8260040F25C30C2F2000000680068C8
:104C00000007002810D5FFE7FFE70020089040F2DA
:104C10005C30C2F2000001680968089100684068D1
:104C200008900898FFE7FFE7FFE740F25C30C2F228
:104C300000000DF1260101220023FEF7F9FE08B95C
:104C4000FFE7F2E740F25C30C2F2000005900DF1A0
:104C50002701012204920A23FEF78EFF049A059889
:104C60000DF126010223FEF7E3FE78B9FFE79DF878
:104C700026009DF82710884208D1FFE70020C4F2E3
:104C8000020010210122FDF785F807E00020C4F2A0
:104C9000020010210022FDF77DF8FFE740F2A4306A
:104CA000C2F20000006800680007002810D5FFE786
:104CB000FFE70020079040F2A430C2F20000016834
:104CC000096807910068406807900798FFE7FFE7C9
:104CD000FFE740F2A430C2F200000DF126010122EC
:104CE0000023FEF7A5FE08B9FFE7F2E740F2A43083
:104CF000C2F2000003900DF12701012202920A2363
:104D0000FEF73AFF029A03980DF126010223FEF7FF
:104D10008FFE78B9FFE79DF826009DF8271088429E
:104D200008D1FFE70020C4F2020020210122FDF794
:104D300031F807E00020C4F2020020210022FDF734
:104D400029F8FFE740F2EC30C2F20000006800688A
:104D50000007002810D5FFE7FFE70020069040F28B
:104D6000EC30C2F2000001680968069100684068F2
:104D700006900698FFE7FFE7FFE740F2EC30C2F24B
:104D800000000DF1260101220023FEF751FE08B9B3
:104D9000FFE7F2E740F2EC30C2F2000001900DF1C3
:104DA0002701012200920A23FEF7E6FE009A0198ED
:104DB0000DF126010223FEF73BFE78B9FFE79DF8CF
:104DC00026009DF82710884208D1FFE70020C4F292
:104DD000020040210122FCF7DDFF07E00020C4F2C1
:104DE000020040210022FCF7D5FFFFE70AB080BD9A
:104DF00002E008C8121F08C1002AFAD170477047A4
:104E0000002001E001C1121F002AFBD17047000001
:104E1000000000000000010203040607080900006A
:104E20000000010203040006101600061016000020
:104E3000504E00080000002010000000F04D000857
:104E4000604E00081000002028080000004E0008F6
:104E50000024F40001000000100000000000000029
:040000050800018965
:00000001FF
